:020000040000fa
:080000000001040000000000f3
:020000040000fa
:100200002f8b20000e7922000e01880000000000d4
:100210000c000700a06e2000010020001100070064
:10022000000020000000e000020032000000020098
:1002300000000000ea030200000000000040da00b5
:100240000000fe004440a900000020000000e00083
:100250000300320000002000a00188004440a800f4
:100260000000060091018800800078000000eb008b
:1002700015003700e280400032a0b4009101ba00be
:10028000e280400032a0b4009102ba00e280400057
:1002900032a0b4000002eb00472bde00f507b200ed
:1002a000602ce10004003a000059eb008301e900f2
:1002b000fdff3e00040037006128e100010032002c
:1002c0000082eb00040007001101ba000200e00008
:1002d000e8ff3a00000006003159ba008301e90046
:1002e0000c0032002159ba008301e90008003200f5
:1002f0000400e00003003a00e280400032a0b400b5
:10030000f5ff370011d9ba008301e900faff3a007e
:100310008100e800e180400032a0b4000000060047
:10032000ff3ffc00e74380000700780001438000a6
:100330001e02020000000000f043880009002000b7
:1003400007007800f14280001e0202000000000059
:1003500000805400004488000000fc0000000600fb
:1003600030158800a022a800a002ae00feff3700d2
:10037000a002aa00001480004100de000000060078
:10038000ff3ffc0030302000b00102000000000000
:100390008003780020202000b0010200000000004f
:1003a00000047800854480000538e10012003c001c
:1003b0000540e10010003c00c1bbde0041c4de008e
:1003c000088043004180de00914280001e0202004e
:1003d0000000000080007800d0438000b4060200d6
:1003e00000000000c14280001e0202000000000068
:1003f00000458800010037008980a8000000fc004b
:1004000000000600ff3ffc00f04380000143800035
:100410001e020200000000008004780000448000fa
:10042000f14280001e0202000000000080835400a0
:10043000e74388000000fc0000000600000278008e
:10044000810278001301c0004100c800f6002000be
:100450000600c8001001800000000600ff3ffc00fd
:1004600001005000bc020200000000000002780001
:10047000820278001301c0004100c8007602020029
:1004800000000000bc020200000000000004780030
:10049000e942800009004200bc02020000000000a6
:1004a00000027800e0428800830278001301c00057
:1004b0004100c8007602020000000000bc020200f9
:1004c000000000008004780009004400aa42800077
:1004d000bb4280000a80e6000a0078000b00e600bc
:1004e0000b0078004380de002e0037004220ef0032
:1004f00060026a000a0033002a0180000a00e0005e
:1005000018003a001a0180000a00e00018003200ca
:10051000020009004555de0012003a0014003700c1
:100520002a018000fbff2f000a00e00001003a00d2
:100530000f0037000b50e10007003a001a0180005d
:100540000a00e0000a003200020009004555de0002
:1005500001003200060037001a0228001a01880044
:1005600003003700fafd27001a0188000000370059
:100570001001800000000600fafd23001b022c0081
:100580000a00e10003003d000b00e100030034001d
:10059000030037000a007800010037000b007800e4
:1005a000000006000000fc0000000600ff3ffc0009
:1005b000c5428000e043800005004000e6020200e2
:1005c00000000000b00e8800040037000000e000ca
:1005d00001003c0000002000000006000000fc00bc
:1005e000000006000600fa00200798000000eb005b
:1005f000000f78000c0037000000eb001007980097
:10060000040037000060fe001e0090000000e800bb
:10061000100798009e009000e0822600808f500016
:10062000f8ff36001e0fe8002e0090009e0f10000d
:10063000f1ff39000080fa00000006000000fa0017
:10064000e402a900e422a900e442a900e462a900ae
:10065000e4c2a900011c200091407800c0cfb30083
:1006600000c060000014a000c0e1b700210e8000af
:100670000000280000806000116f20000100700061
:10068000200e8800c801a900c821a900c841a900fe
:10069000c881a900c8a1a900c8c1a900ca41a90070
:1006a000ccc1bf00f043b20001c8b30001407000ec
:1006b000cce1b700c11c20009140780000ccb30011
:1006c00000c06000a040b300cce1b700d201a90097
:1006d000d221a900d241a90030de200010088800f4
:1006e00005e1a900205320006008880011e1a9005d
:1006f000c00d25007008880013e1a90040032d00fb
:10070000d00888001fe1a90030de2000e008880042
:1007100021e1a900012a20009140780000ceb30019
:1007200000c07000a0e2b700a062a900112a20005a
:1007300091407800c0cfb30000c060000014a0005a
:10074000a1e2b7000000eb0010158800512a20003c
:100750009140780000ceb30000c060000014a000fb
:10076000a5e2b700412a20009140780000ccb300f8
:1007700000c060005040b300a4e2b7003001280080
:10078000401588000000eb0050158800a1e2a80089
:1007900081e0a900aac0bf007040b300aae0b70082
:1007a0009180a8008c60a8008cc0a900510920008d
:1007b00091407800f0c8b30000c0600001c6b300eb
:1007c0000140700095e0b70090e0a9000080fa00b9
:1007d000000006000000fa0098ff07001201070061
:1007e00084c0bf000044b2000004e0005f0032009b
:1007f000ff3ffc0041448000f04280000fff0700f3
:10080000e04388000000fc00c5fe0700f0438000c4
:10081000504488000044800060448800ff3ffc0092
:1008200080002000cefe070080007800804280001b
:1008300000805000e04388000000fc00e14380009d
:1008400090448000808f5000010034008980a8000f
:10085000e1438000a0448000808f500001003d00f3
:100860008980a800aefe0700b0438000e042880007
:10087000a043800092438000f143800054448000f4
:100880008001780004007800f4fe0700b04388007f
:10089000c0438000e0428800a04380009243800073
:1008a00001448000644480008001780004007800e6
:1008b000eafe0700c043880060458000b04488001d
:1008c000d1448000b04380000f01070060458800dc
:1008d00070458000b0448800d1448000c04380004f
:1008e000090107007045880061458000504580007f
:1008f00000804000f0438800f1438000c042800047
:10090000808f500002003500c0428000f043880014
:10091000f1438000d0428000808f500002003c00f4
:10092000d0428000f0438800704580000044880079
:1009300001448000c0428000808f500002003500da
:10094000c04280000044880001448000d042800002
:10095000808f500002003c00d0428000004488009c
:10096000a8fe070011ff070084c0a90084c0bf00d3
:1009700001c8b300014060000004e0002d00320017
:10098000ff3ffc005000200075fe0700800078004b
:100990008042800000805000e04388000000fc009e
:1009a0005ffe0700f0438000d0438800ff3ffc005b
:1009b000e1438000f0428000a0fe0700e043880091
:1009c0000000fc0080458000b0448800e1448000c5
:1009d000e0438000cc000700804588003044800060
:1009e000e04288002044800012448000814580005d
:1009f000800178000000eb0098fe0700304488007a
:100a00003144800020438000808f50000200350078
:100a1000204380003044880031448000304380000f
:100a2000808f500002003c0030438000304488003a
:100a300084e0a90086c0bf000042b2000004e000cc
:100a4000420032004efe070050458000b04488004e
:100a5000c144800000458000ab000700504588007d
:100a6000104580000000e800104588002045800007
:100a70000000e00018003a0011458000f0448000ba
:100a8000808f500014003500014580003045800003
:100a9000808f5000010035008980a800014580004a
:100aa00040458000808f500001003c008980a800f4
:100ab000004580000000e00001003a008980a800a5
:100ac00070072000400e880010002000204588009c
:100ad0000000eb0010458800204580000000e00089
:100ae000190032000145800030458000808f5000a1
:100af000010035008980a800014580004045800044
:100b0000808f500001003c008980a80000458000d3
:100b10000000e00001003a008980a8004044800005
:100b20000000e80040448800414480007044800098
:100b3000808f5000020035007044800040448800df
:100b40000000eb001045880086a0a9000060fe00b0
:100b500023ff370000a0fe003600f800849fbe008f
:100b6000869fbe000000fa004143800030448000b0
:100b70000080400010438800104380006101b900ec
:100b800050438000614380000200400083804800a1
:100b900050438800614388005243800063438000d3
:100ba0007043800081438000800f5100818f590085
:100bb000080035000000eb00f042880080eb2700c1
:100bc000004388006000b8005043880061438800fb
:100bd00001003700540007008460a9000080fa007b
:100be0004f03be004f02be003600f9000080fe0039
:100bf00000400600801f78000000fa00c1e1a90053
:100c00000000eb00400e8800e622a900e642a900a1
:100c1000e662a900e6c2a9008980a9000080fa0066
:100c20004f007800004006000000fa00200e80000f
:100c3000c0428800200e80000000ea00d0428800f8
:100c4000c04280004300dd00a0428800c142800015
:100c500080ff2f000088b900b04288000000eb0040
:100c6000400e8800c1e1a90010002000900e88000d
:100c7000e00120005bfe0700a1e2a800e602a80058
:100c8000f000200057fe0700e0e02000b4fd070060
:100c900080428800e602a900e001200051fe070022
:100ca000e622a800e00120004efe0700c0428000be
:100cb000b00e8800c0428000c00e8800c042800094
:100cc000d00e8800e642a8004001200045fe070043
:100cd000e662a8004001200042fe0700e6c2a8002c
:100ce000e00120003ffe0700c1e1a80005e1a800e7
:100cf00011e1a80013e1a8001fe1a80021e1a9006b
:100d00000080fa0000000600ff3ffc00b2448000b3
:100d1000020050001e02020000000000020040001d
:100d20000000fc0000000600ff3ffc00f9428000cc
:100d300000438000114380001e02020000000000fa
:100d40000080440000438800094380001143800074
:100d50001e0202000000000000805400f0428800e3
:100d60000000fc000000060000027800810278000c
:100d70000500e000010032000300370060026a0055
:100d80001000330011003700120009000520d900bf
:100d900004003000110228000100e10009003400c5
:100da0000b00370060026a0003003300e0826a0033
:100db0000400330002003700e0826a0001003b00bb
:100dc000020037001002280001003700f0fd270064
:040dd0000000060019
:020000040000fa
:0200000401f009
:04000000f7ff000006
:020000040000fa
:0200000401f009
:04000400c0ff000039
:020000040000fa
:0200000401f009
:04000800dfff000016
:020000040000fa
:1000080034070000340700003407000034070000fc
:1000180034070000340700003407000034070000ec
:10002800340700003407000034070000aa05000068
:1000380034070000340700003407000034070000cc
:1000480034070000340700003407000034070000bc
:1000580034070000340700003407000034070000ac
:10006800340700003407000034070000340700009c
:10007800340700003407000034070000340700008c
:10008800340700003407000034070000340700007c
:10009800340700003407000034070000340700006c
:1000a800340700003407000034070000340700005c
:1000b800340700003407000034070000340700004c
:1000c800340700003407000034070000340700003c
:1000d800fa05000034070000340700003407000068
:1000e800340700003407000034070000340700001c
:0800f80034070000340700008a
:020000040000fa
:1001080034070000340700003407000034070000fb
:1001180034070000340700003407000034070000eb
:10012800340700003407000034070000aa05000067
:1001380034070000340700003407000034070000cb
:1001480034070000340700003407000034070000bb
:1001580034070000340700003407000034070000ab
:10016800340700003407000034070000340700009b
:10017800340700003407000034070000340700008b
:10018800340700003407000034070000340700007b
:10019800340700003407000034070000340700006b
:1001a800340700003407000034070000340700005b
:1001b800340700003407000034070000340700004b
:1001c800340700003407000034070000340700003b
:1001d800fa05000034070000340700003407000067
:1001e800340700003407000034070000340700001b
:0801f800340700003407000089
:020000040000fa
:100dd40050080000620000000200000000000e0045
:100de400740000000000000000000000000000008b
:100df40000b87e0000002d0000d3ff005c05e80071
:100e040023030000e8230300001200000300000095
:100e140000000000000000000000000000001b00b3
:100e24000003000000000000000000000000e600d5
:100e3400025078004015c000ea000000e8031100e9
:100e440001370000e8030000000000000000a400d7
:100e5400065cf90000000000000000000000000033
:040e6400000000008a
:020000040000fa
:080e68000040da000000fe006a
:00000001FF
